:020000001628C0
:0E0006008312031321088A00200882000800DC
:1000140003208A110A128000840AA00A0319A10A83
:08002400F003031D0A28080087
:10002C005B3083120313A0000130A1002430840044
:10003C003430F0000A2083168601013088008701D5
:10004C0083128601870188010B30FB002630FC00EF
:10005C005D30FD00FD0B3028FC0B3028FB0B3028ED
:10006C000000000007140818CC281730D40000300A
:10007C00D50080305506F00080307002031D4828F2
:10008C0001305402031C7F2808187F285408F00004
:10009C005508F100F00DF10D70107008243E84002D
:1000AC000008860087140711871107128030F000B2
:1000BC00803055067002031D65285408033C031854
:1000CC006A28871207176C28871607130B30FB005A
:1000DC002630FC005D30FD00FD0B7228FC0B7228F5
:1000EC00FB0B7228000000000130D402031CD50366
:1000FC003F280130D6000030D7000F30D40000303C
:10010C00D50080305506F00080307002031D902819
:10011C0001305402031CCB28560857040319CB2872
:10012C000818CB285408F0005508F100F00DF10D1B
:10013C0070107008243E8400000886008710871217
:10014C00071307168030F000803055067002031D2F
:10015C00B1285408033C0318B62807118715B82892
:10016C00071587110B30FB002630FC005D30FD00BD
:10017C00FD0BBE28FC0BBE28FB0BBE2800000000AC
:10018C000130D402031CD50387283928081C5729B1
:10019C000330A2000030A300081C1429871C14296A
:1001AC000330A2000030A3008030F0008030230622
:1001BC007002031DE3282208003C03180829081CC0
:1001CC0008292208F0002308F100F00DF10D701041
:1001DC007008243E840000088600871607130B3035
:1001EC00FB002630FC005D30FD00FD0BFB28FC0BFA
:1001FC00FB28FB0BFB28000000000130A202031CB3
:10020C00A303DA28860187100711871507168712B2
:10021C000713081C1429881814290F29081C56299F
:10022C00871856290330A2000030A3008030F0005C
:10023C00803023067002031D25292208003C031878
:10024C004A29081C4A292208F0002308F100F00D65
:10025C00F10D70107008243E84000008860007150C
:10026C0087110B30FB002630FC005D30FD00FD0BD0
:10027C003D29FC0B3D29FB0B3D2900000000013002
:10028C00A202031CA3031C298601871407118711E2
:10029C00071287120717081C562988185629512946
:0602AC00CC283928582976
:0402B20003340034DD
:1002B6000034003401340034023400340334003492
:1002C6000434003405340034063400340734003472
:1002D6000834003409340034103400341134003446
:1002E600123400341334003414340034153400341A
:1002F60016340034173400341834003419340034FA
:1003060020340034213400342234003423340034C1
:04031600003400347B
:04031A000034003477
:02400E004A2F37
:00000001FF
